:020000040800F2
:10000000000400200F030008D5040008D7040008EE
:10001000DB040008DF040008E3040008000000001F
:10002000000000000000000000000000E7040008DD
:10003000E904000800000000EB040008ED040008DB
:100040002F0300082F0300082F0300082F030008C8
:100050002F0300082F0300082F0300082F030008B8
:100060002F0300082F0300082F0300082F030008A8
:100070002F0300082F0300082F0300082F03000898
:100080002F0300082F0300082F0300082F03000888
:100090002F0300082F0300082F0300082F03000878
:1000A0002F0300082F0300082F0300082F03000868
:1000B000EF0C00082F0300082F0300082F0300088F
:1000C0002F0300082F0300082F0300082F03000848
:1000D0002F030008810400082F0300082F030008E5
:1000E0002F0300082F0300082F0300082F03000828
:1000F0002F0300082F0300082F0300082F03000818
:100100002F0300082F0300082F0300082F03000807
:100110002F0300082F0300082F0300082F030008F7
:100120002F0300082F0300082F0300082F030008E7
:1001300000F002F800F03FF80AA090E8000C8244BA
:100140008344AAF10107DA4501D100F034F8AFF297
:10015000090EBAE80F0013F0010F18BFFB1A43F0A5
:10016000010318472C2600004C260000103A24BF3B
:1001700078C878C1FAD8520724BF30C830C144BF0C
:1001800004680C607047000000230024002500264E
:10019000103A28BF78C1FBD8520728BF30C148BFEA
:1001A0000B607047642902F0F981002070471FB589
:1001B0001FBD10B510BD02F0BBFA1146FFF7F7FFE7
:1001C00000F0CAF802F0D9FA03B4FFF7F2FF03BC5B
:1001D00000F0EAF80CB50020019000904748006854
:1001E00040F480304549086000BF4448006800F48E
:1001F000003000900198401C0190009818B90198B7
:10020000B0F5A06FF1D13D48006810F4003F02D076
:100210000120009001E0002000900098012843D1C7
:100220003748006840F0100035490860084600680B
:1002300020F0030008600846006840F002000860F3
:100240002E4840682D494860084640684860084686
:10025000406840F4806048600846406820F47C10A4
:1002600048600846406840F4E81048600846006866
:1002700040F08070086000BF2048006810F0007FE8
:10028000FAD01E48406820F003001C494860084628
:10029000406840F00200486000BF1848406800F025
:1002A0000C000828F9D101E000BFFEE70CBD10B535
:1002B000FFF790FF10BD10B51048006840F0010036
:1002C0000E490860084640680E4908400B494860DE
:1002D000084600680C49084008490860084600685C
:1002E00020F4802008600846406820F4FE00486042
:1002F0004FF41F008860FFF7DAFF10BD00100240C6
:10030000002002400000FFF8FFFFF6FE70470B4898
:1003100080470B4981F308880A480047FEE7FEE75B
:10032000FEE7FEE7FEE7FEE7FEE7FEE7FEE7FEE7A5
:1003300005480649064A074B704700000D030008B0
:10034000B008002031010008B0000020B0080020F3
:10035000B0040020B0040020FFF7ADFF00F037FD2F
:1003600000F050F800F045FC00F090FC00F010FDAB
:1003700000F00FFD00F028FD00F00EFD4FF4E1301D
:1003800000F060F80AE0064800686FEA00000549DE
:10039000C1F898014FF0C80000F0D6FCF3E7000068
:1003A0009881224200802242014600BF704770B50A
:1003B00004460D4600BF8021404801F089FA00281C
:1003C000F9D0A1B23D4801F02CFA204670BD10B51D
:1003D000044600BF8021394801F07AFA0028F9D09C
:1003E0002146364801F01DFA10BD10B500BF20218E
:1003F000324801F06DFA0028F9D0304801F015FAC2
:10040000C0B210BD08B5012144F2040001F080F82B
:100410004FF40070ADF8000018208DF803000320A1
:100420008DF802006946264800F0CCFD4FF480604C
:10043000ADF8000004208DF803006946204800F064
:10044000C1FD08BD1FB5044600940020ADF80400AE
:10045000ADF80600ADF80800ADF80C000C20ADF8C2
:100460000A006946154801F0FEF8012240F22551C4
:10047000124801F075F90121104801F065F91FBD1E
:1004800010B540F225510D4801F038FA40F22551DF
:100490000A4801F05DFA094801F0C7F9C4B22146E3
:1004A00008A002F03BF808A002F038F807480068FE
:1004B0006FEA00000649C1F8B40110BD00380140E0
:1004C00000080140256400000A0D0000B4812242AA
:1004D00000802242704700BFFEE700BFFEE700BF7A
:1004E000FEE700BFFEE770477047704770470000A7
:1004F00010B502467E2404EA4203082009E003F016
:100500008004802C00D100E000BF5C06230E441E56
:10051000E0B20028F3DC082009E001F08004802C20
:1005200000D100E000BF4C06210E441EE0B20028BE
:10053000F3DC10BD10B5024600207E2404EA42041C
:1005400044F08003082109E003F08004802C00D1EE
:1005500000E000BF5C06230E4C1EE1B20029F3DC74
:10056000082104E04406200E00BF4C1EE1B2002921
:10057000F8DC10BD70B505460C4600262846FFF78E
:10058000D9FF064646EA04012846FFF7B1FF70BDD1
:1005900070B505460C4600262846FFF7CBFF0646F9
:1005A00026EA04012846FFF7A3FF70BD2DE9FE4FA0
:1005B0000646884691469A46DDF830B0FE20029005
:1005C0000020019000900C2E06D00E2E09D1122092
:1005D00001901020009005E07720019030200090DD
:1005E00000E000BF00BF019840F080010220FFF74B
:1005F0007FFF80210420FFF7CBFF00210120FFF7C0
:1006000077FF80210A20FFF7B5FF002505E018F8E5
:1006100005100920FFF76CFF6D1C4D45F7D33146DF
:100620000120FFF765FF0C2E03D180210D20FFF77D
:10063000A1FF4FF4167500BF0420FFF77BFF0446AF
:100640006D1E2DB114F0010F02D100980442F3D0B9
:1006500080210D20FFF79CFF95B30620FFF76AFF6E
:1006600010F01B0F2DD1002002900198204010F0B7
:10067000010F01D0FF2002900C2E24D10A20FFF799
:1006800059FF04460C20FFF755FF00F007072FB174
:10069000601E07EBC000CBF8000002E0E000CBF8E2
:1006A000000004B90124122C00DD1224002505E00D
:1006B0000920FFF73FFF0AF805006D1CA542F7D39C
:1006C00001E0FE20029080210C20FFF753FF002163
:1006D0000120FFF70DFF0298BDE8FE8F70B587B0CF
:1006E00005460C4608210846FFF752FF07210D205A
:1006F000FFF7FEFE03211420FFF73CFF8DF80450A6
:1007000006A801AB012201A900900C20FFF74EFFC3
:1007100006464EB90698102806D19DF804002070B0
:100720009DF80500607000E0FE26304607B070BD01
:10073000F0B587B00546002708210846FFF728FFD7
:1007400000210D20FFF7D4FE80210E20FFF720FFAF
:1007500093208DF8040020208DF8050006A801AB39
:10076000022201A900900C20FFF720FF064686B95F
:10077000002407E001A8005D285501A8005D47405E
:10078000601CC4B2042CF5DB01A8005DB84200D0A7
:10079000FE2680210E20FFF7EDFE304607B0F0BDAB
:1007A0002DE9F04107468846154604210520FFF74C
:1007B000EFFE00210120FFF79BFE80210A20FFF7BA
:1007C000D9FE002405E0395D0920FFF791FE601C89
:1007D000C4B24445F7DB03210120FFF789FEFF2463
:1007E00000BF0520FFF7A6FE0646601EC4B214B186
:1007F00016F0040FF5D02220FFF79CFE2870212070
:10080000FFF798FE6870BDE8F08170B587B00546C7
:1008100093208DF8040070208DF8050000208DF8DD
:100820000A0000240BE0295D01AAA01C11549DF8C8
:100830000A00295D48408DF80A00601CC4B2042CEF
:10084000F1DB0DF10B02072101A8FFF7A9FF082139
:100850000846FFF79DFE06A801AB092201A90090FA
:100860000C20FFF7A3FE064626B90698182801D1EA
:10087000002600E0FE26304607B070BD2DE9F043AB
:1008800087B006460F46904699468DF804608DF86D
:100890000570002406E018F8041001AAA01C1154E9
:1008A000601CC4B2062CF6DB002407E019F8041023
:1008B00001AA04F108001154601CC4B2062CF5DB37
:1008C00006A801AB0C2201A900900E20FFF76EFED6
:1008D00005462DB90820FFF72DFE10F0080F00D1B6
:1008E000FE25284607B0BDE8F083F0B587B0054681
:1008F0000E4630208DF804008DF805500DF10602EB
:10090000022101A8FFF74CFF06A801AB042201A9B0
:1009100000900C20FFF74AFE074667B9069890281A
:1009200009D1002404E001A8005D3055601CC4B268
:10093000102CF8DB00E0FE27384607B0F0BDF0B51C
:1009400087B006460F46A0208DF804008DF805609C
:100950000DF10602022101A8FFF722FF06A801AB54
:10096000042201A900900C20FFF720FE054645B99E
:100970000698042805D19DF8040000F00F000A280D
:1009800000D0FE250DBB002404E0385D01A9085508
:10099000601CC4B2102CF8DB05AA102101A8FFF7D7
:1009A000FFFE06A801AB122201A900900C20FFF760
:1009B000FDFD054645B90698042805D19DF80400BB
:1009C00000F00F000A2800D0FE25284607B0F0BD31
:1009D0002DE9F04187B007460E4690468DF8047029
:1009E0008DF805600DF10602022101A8FFF7D8FE7F
:1009F00006A801AB042201A900900C20FFF7D6FD48
:100A0000044644B90698042805D19DF8040000F076
:100A10000F000A2800D0FE24E4B9002505E018F8EC
:100A2000050001A94855681CC5B2102DF7DB02AAC4
:100A3000042101A8FFF7B4FE0020069006A801AB30
:100A4000062201A900900C20FFF7B0FD0446A01C6F
:100A500000D00024F4B9B0208DF804008DF80560B2
:100A60000DF10602022101A8FFF79AFE06A801ABCC
:100A7000042201A900900C20FFF798FD044644B918
:100A80000698042805D19DF8040000F00F000A28FC
:100A900000D0FE24204607B0BDE8F08170B587B0D5
:100AA00005460E46C2208DF804008DF805500DF164
:100AB0000602022101A8FFF773FE06A801AB04227B
:100AC00001A900900C20FFF771FD044644B9069877
:100AD000042805D19DF8040000F00F000A2800D07A
:100AE000FE24CCB900208DF804008DF805008DF8A7
:100AF00006008DF8070002AA042101A8FFF750FEA6
:100B000006A801AB062201A900900C20FFF74EFDBC
:100B10000446A01C00D0002414B1FE2007B070BD14
:100B2000B0208DF804008DF805600DF10602022159
:100B300001A8FFF735FE06A801AB042201A9009029
:100B40000C20FFF733FD044644B90698042805D16C
:100B50009DF8040000F00F000A2800D0FE24204673
:100B6000DCE710B587B050208DF8040000208DF828
:100B700005000DF10602022101A8FFF711FE06A8EB
:100B800001AB042201A900900C20FFF70FFD0446E1
:100B9000002007B010BD00B50F210120FFF7A8FC11
:100BA0003D211120FFF7A4FC1E212D20FFF7A0FC02
:100BB00000212C20FFF79CFC8D212A20FFF798FCB8
:100BC0003E212B20FFF794FC002000BD10B514201F
:100BD000FFF7B0FC044614F0030F03D103211420E7
:100BE000FFF7C8FC10BD00B503211420FFF7D0FCAF
:100BF00000BDFFF7D0FFFFF7F6FFFFF7E7FF3BE091
:100C00001E495220FFF76AFD044604B134E01B4838
:100C1000FFF78EFD044604B12EE01848FFF7F5FDFE
:100C2000044604B128E0154B154A01216020FFF766
:100C300025FE044604B11FE012490120FFF77FFEA4
:100C4000044604B118E0104A0121C020FFF7C0FE9D
:100C5000044604B110E002210120FFF71FFF044603
:100C600004B109E005490220FFF73FFE044604B144
:100C700002E0FFF776FF00BFC2E700003800002067
:100C8000080000200E000020040000200EB5012105
:100C9000084600F04AFC4FF0804000F073FE4FF031
:100CA000804001F091F94FF47A70ADF804004720CC
:100CB000ADF800000020ADF80600ADF8020069466E
:100CC0004FF0804000F0C0FE0121880701F00EFCCB
:100CD00000214FF0804001F043FA012211469007B5
:100CE00001F059F90121880701F03AF90EBD10B55C
:100CF0000121880701F0FDFBE8B10121880701F01F
:100D000009FC1F480088401C1D4908801D480088B8
:100D1000401E1C4908801A480088B0F5FA7F0AD1A5
:100D2000194800686FEA00001849C1F8B0014FF097
:100D300000001349088010BD1249088000BF114906
:100D400009880029FBD17047002109E0002201E059
:100D5000531C9AB242F614039A42F9DB4B1C99B227
:100D60008142F3DB7047002107E0002201E0531CC1
:100D70009AB2092AFBDB4B1C99B28142F5DB704722
:100D80001E00002020000020B0812242008022426C
:100D9000704770477047704708B50121702000F018
:100DA000B7FB4FF44150ADF8000010208DF8030060
:100DB00003208DF802006946024800F003F908BDDF
:100DC000704770470014014070477047704708B57E
:100DD00000214FF0006000F05FF84FF4A06000F0D9
:100DE00023F825208DF8000002208DF80100002056
:100DF0008DF8020001208DF80300684600F019F814
:100E00004FF4E06000F010F81C208DF80000002086
:100E10008DF8010001208DF802008DF8030068466E
:100E200000F007F808BD000031490143314A116064
:100E3000704770B5002100230F22C4780CB32D4CED
:100E4000246804F4E064C4F5E064210AC1F10403F9
:100E5000CA40447804FA03F184781440214309011C
:100E6000254C0678A155047804F01F050124AC40F8
:100E700005786D114FF0E02606EB8505C5F80041B9
:100E800009E0047804F01F050124AC401B4D0678EE
:100E9000761145F8264070BD194A0A400243154BA9
:100EA0001B1F1A60704739B1124A121D12680243A3
:100EB000104B1B1D1A6006E00E4A121D1268824379
:100EC0000C4B1B1D1A607047042808D14FF0E0211D
:100ED000096941F004014FF0E022116107E04FF091
:100EE000E021096921F004014FF0E022116170470F
:100EF0000000FA050CED00E000E400E080E100E015
:100F000080FFFF1F10B50446C248844208D101216A
:100F1000042000F017FB0021042000F013FB46E042
:100F2000BD48844208D10121082000F00BFB0021BC
:100F3000082000F007FB3AE0B848844208D10121BC
:100F4000102000F0FFFA0021102000F0FBFA2EE044
:100F5000B348844208D10121202000F0F3FA002197
:100F6000202000F0EFFA22E0AE48844208D10121AF
:100F7000402000F0E7FA0021402000F0E3FA16E0FC
:100F8000A948844208D10121802000F0DBFA002129
:100F9000802000F0D7FA0AE0A448844207D101215A
:100FA000801500F0CFFA0021A01500F0CBFA10BD9B
:100FB00010B50121084600F0C5FA0021012000F01B
:100FC000C1FA10BD2DE9F04102460025002600209F
:100FD00000230024002791F803C00CF00F0591F8BE
:100FE00003C01CF0100F03D091F802C04CEA0505B5
:100FF00091F800C0BCF1000F31D0146800202BE044
:101000004FF0010C0CFA00F3B1F800C00CEA030633
:101010009E4220D183004FF00F0C0CFA03F7BC4323
:1010200005FA03FC4CEA040491F803C0BCF1280F54
:1010300006D14FF0010C0CFA00FCC2F814C00AE013
:1010400091F803C0BCF1480F05D14FF0010C0CFA28
:1010500000FCC2F810C0401C0828D1D31460B1F8BD
:1010600000C0BCF1FF0F34DD546800202EE000F119
:10107000080C4FF0010808FA0CF3B1F800C00CEAB4
:1010800003069E4221D183004FF00F0C0CFA03F7A8
:10109000BC4305FA03FC4CEA040491F803C0BCF11C
:1010A000280F05D100F1080C08FA0CF8C2F81480DA
:1010B00091F803C0BCF1480F07D100F1080C4FF0C4
:1010C000010808FA0CF8C2F81080401C0828CED39A
:1010D0005460BDE8F0814FF6FF71018002218170FC
:1010E0000421C17070470246002093680B4201D072
:1010F000012000E0002070470146886880B27047F8
:1011000002460020D3680B4201D0012000E00020FD
:1011100070470146C86880B27047016170474161FD
:1011200070470AB1016100E041617047C1607047DA
:101130004FF480320A4382618161826182698269EF
:101140007047024600203A4B18684FF680731840EB
:1011500040EA02100843364B186070473549C861B1
:101160007047F0B50A460023002400210025304EC8
:101170007168C0F3034583B200F44016B6F5401F12
:1011800008D121F070612A4E766826F07066284FEB
:101190007E6012E000F48016B6F5801F06D10326AB
:1011A00006FA05F4A14341F0706106E0460D3601F0
:1011B00003FA06F6B14341F0706122B1460D3601E3
:1011C00003FA06F631431A4E7160F0BD30B50022C5
:1011D0008B071C0F0F2303FA04F2154B08338C10F6
:1011E00053F824309343124C08348D1044F82530C2
:1011F00023468C1053F824308C07240F00FA04F493
:1012000023430B4C08348D1044F8253030BD0A4977
:101210000860704700080140000C014000100140C8
:101220000014014000180140001C01400020014052
:101230000000014000002042DC002042DD48006840
:1012400040F00100DB49086008464068DA49084080
:10125000D849486008460068D8490840D549086020
:101260000846006820F4802008600846406820F4A2
:10127000FE0048604FF41F0088607047CD49096840
:1012800021F48031CB4A11601146096821F4802194
:101290001160B0F5803F03D0B0F5802F0ED106E08D
:1012A000C449096841F48031C24A116007E0C1496C
:1012B000096841F4A021BF4A116000E000BF00BFEF
:1012C000704710B501460022002300204A11012A70
:1012D00002D1B84C236806E0022A02D1B54C236A39
:1012E00001E0B44C636A01F01F02012494401C42E7
:1012F00001D0012000E0002010BD38B50020009092
:101300000024002500BF3120FFF7DBFF05460098D1
:10131000401C00900098B0F5A06F01D0002DF2D0D5
:101320003120FFF7CEFF08B1012400E00024204661
:1013300038BD014600209F4A106820F0F80040EABE
:10134000C100106070479E49086070470246002047
:10135000984B586820F47C1042EA01031843954BDF
:101360005860704796490866704701460020914AC8
:10137000506820F003000843506070478D48406873
:1013800000F00C007047014600208A4A506820F0A7
:10139000F00008435060704701460020854A5068BD
:1013A00020F4E06008435060704701460020814A05
:1013B000506820F4605040EAC1005060704729B185
:1013C0007C4A527A02437B4B5A7204E0794A527A41
:1013D0008243784B5A7270477A49086070470146D9
:1013E0000020744A506820F4404008435060704721
:1013F0000021754A11706F4A82F82010012802D02E
:10140000042808D103E001216F4A117004E005218E
:101410006D4A117000E000BF00BF70476B49086063
:1014200070476449096A0143624A1162704767491B
:1014300044390860704730B50021002200240023A1
:101440005C4D6D6805F00C0121B1042905D0082917
:1014500023D105E05E4D056022E05D4D05601FE093
:10146000544D6D6805F47012524D6D6805F480346A
:10147000022505EB92421CB9564D554305600BE021
:101480004C4D6D6815F4003F03D0524D5543056037
:1014900002E04F4D5543056002E04D4D056000BF31
:1014A00000BF444D6D6805F0F00109094A4D6B5CC1
:1014B0000568DD4045603F4D6D6805F4E061090A4F
:1014C000454D6B5C4568DD4085603A4D6D6805F4BF
:1014D0006051C90A404D6B5C4568DD40C560354DC3
:1014E0006D6805F44041890B3C4D6B5CC568B5FBEC
:1014F000F3F5056130BD29B12E4A526902432D4BE7
:101500005A6104E02B4A526982432A4B5A61704760
:1015100029B1284A92690243264B9A6104E0254A80
:1015200092698243234B9A61704729B1214AD2695B
:101530000243204BDA6104E01E4AD26982431D4B0C
:10154000DA61704729B11B4AD2680243194BDA604D
:1015500004E0184AD2688243164BDA60704729B11A
:10156000144A12690243134B1A6104E0114A1269CA
:101570008243104B1A617047144940390860704724
:101580000F49C86470470B49C87170470948406AE1
:1015900040F0807007494862704701460020054AC4
:1015A00092680A4201D0012000E000207047014902
:1015B00088727047001002400000FFF8FFFFF6FE3F
:1015C00000004242D80042422010024080044242C1
:1015D00000127A0000093D002200002032000020A5
:1015E00010B50446E248844209D101218803FFF77F
:1015F000A9FF00214FF48040FFF7A4FF32E0DD484F
:10160000844209D101214804FFF7A9FF00214FF4CA
:101610000030FFF7A4FF25E0D748844209D101211B
:101620008804FFF79CFF00214FF48020FFF797FF0D
:1016300018E0D248844209D10121C804FFF78FFF86
:1016400000214FF40020FFF78AFF0BE0CC488442D2
:1016500008D101210805FFF782FF00214FF4801017
:10166000FFF77DFF10BD2DE9F04786B005460E4619
:101670000024A24600BF00BF0027B08900B100BF10
:101680002F462C8A4CF6FF700440F08804432C82CD
:10169000AC894EF6F3100440B08831890843718953
:1016A00008430443AC81AC8A4FF6FF400440B08944
:1016B0000443AC8201A8FFF7BEFEAD48874202D1C9
:1016C000DDF810A001E0DDF80CA00AEBCA0000EB89
:1016D0000A1031688900B0FBF1F86420B8FBF0F023
:1016E00004012009642101FB1089322000EB09105C
:1016F000B0FBF1F000F00F0004432C8106B0BDE810
:10170000F0874FF41651016000218180C180018172
:101710000C21418100218181704710B502460020D3
:10172000108A4FF2FF0318400B884C8823438C88A3
:101730002343CC8823431843108210BD002101802D
:1017400041808180C180704721B1828942F400527A
:10175000828104E082894DF6FF731A4082817047CE
:10176000F0B503460024002600250020A1F51067EF
:101770006A3F00D100BF1846C1F3421401F01F06B2
:10178000012707FA06F5012C01D10C3004E0022CE8
:1017900001D1103000E014301AB107682F43076000
:1017A00002E00768AF430760F0BD1AB1838A0B43BC
:1017B000838202E0838A8B4383827047028A4FF6DA
:1017C000F0731A400282028A0A43028270478289B9
:1017D0004FF2FF731A40828182890A4382817047E7
:1017E00021B1828942F00202828104E082894FF6AF
:1017F000FD731A4082817047028A4FF6DF731A40E8
:101800000282028A0A430282704721B1028A42F4AC
:101810008042028204E0028A4BF6FF731A40028281
:101820007047C1F308028280704701468888C0F380
:1018300008007047818941F0010181817047028B66
:10184000D2B20283028B42EA012202837047028BEA
:1018500002F47F420283028B0A430283704721B164
:10186000828A42F02002828204E0828A4FF6DF738D
:101870001A408282704721B1828A42F0100282822D
:1018800004E0828A4FF6EF731A408282704721B1DA
:10189000828A42F00802828204E0828A4FF6F7735D
:1018A0001A4082827047828A4FF6FB731A40828206
:1018B000828A0A438282704721B1828A42F0020200
:1018C000828204E0828A4FF6FD731A40828270475A
:1018D00002460020B1F5007F00D100BF13880B4203
:1018E00001D0012000E00020704701F40072B2F541
:1018F000007F00D100BFCA430280704770B5024626
:101900000024002300250020A1F510666A3E00D1C6
:1019100000BFC1F3421501F01F03012606FA03F3CD
:10192000012D02D19689334006E0022D02D1168A9C
:10193000334001E0968A33400C12012606FA04F483
:101940001688344013B10CB1012000E0002070BDB6
:1019500010B500220023A1F510646A3C00D100BF3D
:101960000A1201249440A3B2DC43048010BD00009D
:10197000003801400044004000480040004C004056
:101980000050004010B50446FE48844208D10121B1
:10199000C014FFF7D7FD0021E014FFF7D3FD52E09C
:1019A000B4F1804F08D101210846FFF7D8FD00218E
:1019B0000120FFF7D4FD46E0F348844208D101211D
:1019C0000220FFF7CCFD00210220FFF7C8FD3AE01E
:1019D000EE48844208D101210420FFF7C0FD002118
:1019E0000420FFF7BCFD2EE0E948844208D1012124
:1019F0000820FFF7B4FD00210820FFF7B0FD22E02A
:101A0000E448844208D101211020FFF7A8FD0021FD
:101A10001020FFF7A4FD16E0DF48844208D1012121
:101A20002020FFF79CFD00212020FFF798FD0AE011
:101A3000DA48844207D101214014FFF783FD0021D9
:101A40006014FFF77FFD10BD028802F08F02028054
:101A5000CA884B881A4303881A4302808A88828581
:101A60000A880285C74A904202D0CC4A904201D1EE
:101A70000A7A028601228282704770B50024002211
:101A80000023058C4FF6FE7635400584028C838852
:101A9000048B4FF68F752C400D882C43751E2A4001
:101AA0000D892A434D882A43CD888586B54DA842A5
:101AB00002D0BA4DA84213D14FF6F7752A404D898E
:101AC0002A434FF6FB752A408D882A4347F6FF6567
:101AD0002B4047F6FF552B408D892B43CD892B4357
:101AE00083800483028470BD70B50024002200232B
:101AF000058C4FF6EF7635400584028C8388048B85
:101B000048F6FF752C400D884FF6FF7606EA05254E
:101B10002C434FF6DF752A400D8906EA05152A4346
:101B20004D8806EA05152A43CD880587954DA842BC
:101B300002D09A4DA8421DD14FF67F752A404D899B
:101B40004FF6FF7606EA05152A434FF6BF752A4081
:101B50008D8806EA05152A4347F6FF352B4047F2E4
:101B6000FF752B408D8906EA85052B43CD8906EA52
:101B700085052B4383800483028470BD70B50024E7
:101B800000220023058C4FF6FF6635400584028C49
:101B90008388848B4FF68F752C400D882C434FF62D
:101BA000FF552A400D894FF6FF7606EA05252A43A0
:101BB0004D8806EA05252A43CD888587714DA842C0
:101BC00002D0764DA8421DD14FF2FF752A404D89B3
:101BD0004FF6FF7606EA05252A434FF6FF352A40E1
:101BE0008D8806EA05252A4346F6FF752B4045F603
:101BF000FF752B408D8906EA05152B43CD8906EA32
:101C000005152B4383808483028470BD70B5002446
:101C100000220023058C4EF6FF7635400584028CA9
:101C20008388848B48F6FF752C400D884FF6FF762D
:101C300006EA05252C434DF6FF752A400D8906EA74
:101C400005352A434D8806EA05352A43CD88A0F894
:101C500040504C4DA84202D0504DA84207D1C3F38A
:101C60000D038D894FF6FF7606EA85152B43838099
:101C70008483028470BD828B4FF2FF331A408283CB
:101C8000828B4FF6FF7303EA01231A438283704766
:101C9000F0B50C461546002100220026078C4EF6B2
:101CA000FF7C07EA0C070784818B028C4FF6FF77D5
:101CB00007EA043640F6FF4739404FF6FF7707EA58
:101CC000052739434FF6FF7707EA033739434DF6C7
:101CD000FF773A4046F480573A4381830284F0BD4F
:101CE000828B4FF6F3731A408283828B0A4382837E
:101CF0007047F0B50C461546002100220026078CDF
:101D00004FF6FF6C07EA0C070784818B028C4FF6B5
:101D1000FF7707EA04264FF60C7739404FF6FF7736
:101D200007EA03172F4339434FF6FF573A4046F46B
:101D300080773A4381830284F0BD028B4FF2FF33F8
:101D40001A400283028B4FF6FF7303EA01231A4302
:101D500002837047F0B50C4615460021002200268C
:101D6000078C4FF6EF7C07EA0C070784018B028C87
:101D70004FF6FF7707EA041640F6FF4739404FF663
:101D8000FF770DE0002C01400004004000080040F7
:101D9000000C0040001000400014004000340140DE
:101DA00007EA033739434FF6FF7707EA0527394338
:101DB0004FF6DF773A4046F010073A43018302843A
:101DC000F0BD028B4FF6F3731A400283028B0A4375
:101DD00002837047F0B50C46154600210022068CA0
:101DE0004FF6FE773E400684018B028C4FF60C7650
:101DF00031407E1C06EA03162E4331437E1E3240DC
:101E000044F00106324301830284F0BD70B50546FB
:101E10000C46208850B92389A28861882846FFF79C
:101E2000D9FFE1882846FFF7CCFF25E02088042869
:101E30000AD12389A28861882846FFF78BFFE188B1
:101E40002846FFF77AFF17E0208808280AD123895F
:101E5000A28861882846FFF74CFFE1882846FFF7F3
:101E60003FFF09E02389A28861882846FFF710FF19
:101E7000E1882846FFF7FFFE70BD2DE9F0410546D9
:101E80000C4600260127608808B9022600E00026DB
:101E9000A088012801D1022700E001272088A0B9ED
:101EA0002389A28861882846FFF794FFE1882846A5
:101EB000FFF787FF23893A4631462846FFF74AFF56
:101EC000E1882846FFF739FF13E02389A28861885B
:101ED0002846FFF73FFFE1882846FFF72EFF2389BA
:101EE0003A4631462846FFF775FFE1882846FFF756
:101EF00068FFBDE8F0810A884B881A438B881A4333
:101F0000CB881A430B891A434B891A438B891A438E
:101F1000A0F8442070474FF6FF71818000210180B6
:101F2000C180418001727047002101804180818021
:101F3000C180018141818181C1817047002101807F
:101F40004180012181800021C180018170470021F1
:101F5000018041808180C180018141818181704700
:101F600021B1028842F00102028004E0028840F2BE
:101F7000FE331A400280704731B1B0F8442042F479
:101F80000042A0F8442005E0B0F84420C2F30E025D
:101F9000A0F8442070471AB183890B43838102E083
:101FA00083898B43838170478182704741EA0203B2
:101FB000A0F8483070471AB183890B43838102E04F
:101FC00083898B438381704701894FF6F8721140F2
:101FD000018170470A46002101894FF68F7319402D
:101FE00011430181704730B504460D46294620460D
:101FF000FFF7F0FF208940F00700208130BD2DE978
:10200000F04104460D4616461F46602D06D13B465C
:10201000012231462046FFF79DFE05E03B460122A6
:1020200031462046FFF7D6FE29462046FFF7D2FF6D
:10203000208940F007002081BDE8F08130B50C46D2
:1020400000210189C9B24FF6FF7505EA0325154342
:1020500025432943018130BD2DE9F04105460E4657
:1020600017469846002443463A4631462846FFF72D
:10207000E5FF2C894FF6F870044044F007044FF652
:102080008F70044044F070042C81BDE8F081F0B5FD
:1020900004460D4616461F463B4632462946204614
:1020A000FFF7CCFF208940F480402081F0BD0185FE
:1020B000828270470A460021018840F28F3319401E
:1020C000114301807047F0B50C4615461E460021AD
:1020D000002200230189028B038C4FF6F8773940E8
:1020E00021434FF6FC473A4040F201173A434FF67E
:1020F000DD773B404FF6FF7707EA06172F433B4358
:10210000018102830384F0BD0A460021018B4FF652
:102110008F7319401143018370470A460021018BD8
:1021200048F6FF7319404FF6FF7303EA0223194381
:10213000018370470A460021818B4FF68F73194047
:102140001143818370470A460021818B48F6FF7353
:1021500019404FF6FF7303EA022319438183704746
:1021600021B1028842F08002028004E0028840F23D
:102170007F331A400280704721B1828842F0040206
:10218000828004E082884FF6FB731A408280704799
:1021900021B1828842F00802828004E082884FF6F2
:1021A000F7731A408280704721B1828842F00102A1
:1021B000828004E082884FF6FE731A408280704766
:1021C0000A460021018B4FF6F77319401143018332
:1021D00070470A460021018B4FF2FF7319404FF6FA
:1021E000FF7303EA02231943018370470A46002163
:1021F000818B4FF6F77319401143818370470A466C
:102200000021818B4FF2FF7319404FF6FF7303EAF1
:1022100002231943818370470A460021018B4FF640
:10222000FB7319401143018370470A460021018B5B
:102230004FF6FF3319404FF6FF7303EA02231943A9
:10224000018370470A460021818B4FF6FB731940CA
:102250001143818370470A460021818B4FF6FF337B
:1022600019404FF6FF7303EA022319438183704735
:102270000A460021018B4FF67F73194011430183F9
:1022800070470A460021018BC1F30E014FF6FF7320
:1022900003EA02231943018370470A460021818B18
:1022A0004FF67F7319401143818370470A4600211E
:1022B000818BC1F30E014FF6FF7303EA022319432A
:1022C000818370470A460021018C4FF6FD73194047
:1022D0001143018470470A460021018C4FF6F773C1
:1022E00019401143018470470A460021018C4FF6C2
:1022F000DF7319404FF6FF7303EA02131943018499
:1023000070470A460021018C4FF67F7319404FF643
:10231000FF7303EA02131943018470470A46002140
:10232000018C4FF6FF5319404FF6FF7303EA022367
:102330001943018470470A460021018C4FF2FF7354
:1023400019404FF6FF7303EA0223194301847047D3
:102350000A460021018C4DF6FF7319404FF6FF73BA
:1023600003EA023319430184704730B50023012486
:102370008C40A3B2048C9C430484048C02FA01F5C3
:10238000ADB22C43048430BD30B5002304248C400E
:10239000A3B2048C9C430484048C02FA01F5ADB210
:1023A0002C43048430BD70B5034600200024184639
:1023B000183001258D40ACB21D8CA5431D8409B198
:1023C00008290AD100EB610005684FF68F76354089
:1023D00005600568154305600FE00D1FC5F34E0548
:1023E0002844056848F6FF763540056005684FF6D5
:1023F000FF7606EA02263543056070BD21B10288EA
:1024000042F00202028004E0028840F2FD331A40EA
:102410000280704721B1028842F00402028004E089
:10242000028840F2FB331A400280704721B1828853
:1024300042F08002828004E082884FF67F731A4067
:1024400082807047028840F2F7331A400280028887
:102450000A430280704782884FF68F731A40828049
:1024600082880A438280704702894FF6F8731A40C7
:10247000028102890A430281704702894FF67F7305
:102480001A40028102890A430281704781847047A1
:1024900081857047818670470187704781877047C3
:1024A000A0F8401070470288D2B2028002880A4326
:1024B000028070470146888E70470146088F70473A
:1024C0000146888F70470146B1F8400070470146C9
:1024D000888C70470146088D704702460020138A99
:1024E0000B4201D0012000E000207047CA43028265
:1024F000704730B50246002000230024158A05EA03
:102500000103958905EA010413B10CB1012000E033
:10251000002030BDCA430282704770470FB404499F
:1025200010B503AA029800F0D5F810BC5DF814FBB2
:10253000000000202DE9F0410E46044600202062F4
:102540002046E168884730B3252805D0D4E9012129
:102550009047206A401CF2E7E16820460027884740
:10256000050018D0A5F14100192802D820354FF4F4
:1025700000673246294620462760FDF713FE40B12A
:10258000012804D0F61D26F007060836D8E7361DC8
:10259000D6E72846DAE7206ABDE8F0812DE9F04168
:1025A0000646002410687529314616A511D0AFF3F0
:1025B0000080002803DAC0F1000013A507E03168AD
:1025C0008A0701D511A502E0490704D510A5012409
:1025D00001E0AFF3008000210A2306F1240707E0A1
:1025E000B0FBF3F203FB1200303078541046491C64
:1025F0000028F5D123462A463046BDE8F04100F0D8
:102600000DB80000000000002D0000002B000000AD
:102610002000000070477047704770472DE9F04771
:102620000D4699469246044600F124080168880642
:1026300004D5E06921F01001216000E00120A842EA
:1026400002DDA0EB050700E00027A16907EB05020A
:1026500002EB0900A1EB0000A0612078C00602D4C3
:102660002046AFF30080002608E0D4E901211AF8E3
:1026700006009047206A401C761C20624E45F4DB21
:102680002078C0060AD52046AFF3008006E0D4E9E2
:10269000012130209047206A401C2062381EA7F19B
:1026A0000107F4DC07E0D4E9012118F805009047A0
:1026B000206A401C2062281EA5F10105F3DC20469B
:1026C000AFF300802078000602D50220BDE8F08735
:1026D0000120FBE7074B70B50D467B4400F011F875
:1026E0000446284600F020F810B14FF0FF3070BDCE
:1026F000204670BDD1DCFFFF01694A1C02610878E9
:10270000704700B58FB0CDE9013100210591054931
:102710007944CDE9031011466846FFF70BFF0FB06F
:1027200000BD0000E5FFFFFF007B00F08000704768
:10273000754600F029F8AE4605006946534620F07C
:102740000700854618B020B5FDF7F2FDBDE8204032
:102750004FF000064FF000074FF000084FF0000B5D
:1027600021F00701AC46ACE8C009ACE8C009ACE810
:10277000C009ACE8C0098D4670470446AFF300803D
:102780002046FDF721FD0000004870474C00002066
:10279000B027000800000020380000006C0100088D
:1027A000E8270008380000207808000088010008A9
:1027B0000000000012000000FFFFFFFFFFFF1234C7
:1027C0005678EDCBA9871234567801FE01FE000041
:1027D00000000000000001020304010203040607D8
:0827E0000809020406080000CC
:0400000508000131BD
:00000001FF
