:10087A0012345678EDCBA9871234567801FE01FE60
:0A088A0012000000FFFFFFFFFFFF58
:10034E001208941208431208E91208BE7B007A00C4
:10035E0079367F52120723EF6004D28180EEC2817C
:10036E007B007A0079361204E1EF70E07B007A00B0
:10037E00793612055CEF70D4750D00750E00750F91
:10038E00367BFF7A08798E7D017F601205D7EF707C
:10039E00BB7BFF7A08797A7F01120293EF70AD7BF7
:1003AE00FF7A08798A7D017FC0120192EF709D7DE0
:1003BE00027F0112064CEF70937B007A0079367F34
:0C03CE00021206C0EF7085120806808045
:10089400E4F584F585F591F592F5B175B2FF7580AF
:0808A400FF7590FF75B0FF2203
:080723008F088B098A0A890B7B
:10072B001208AC7D077F0D1207CB7D037F141208D7
:10073B00D085080E752901752A00752B00752C0EB6
:10074B00752D00752E00752F0C7A00790E12001C7A
:10075B00EF7023E50D6410450C701BAB09AA0AA9B9
:10076B000BE50E12048EAB09AA0AA90B900001E54A
:08077B000F1204A080027FFEB2
:010783002253
:0604E1008B088A09890A5C
:1004E700E4F50C1208ACE4FD7F0D1207CB7D807F8D
:1004F7000E1208B0750F93751020752902752A0022
:10050700752B00752C0F752D00752E00752F0D7B23
:10051700007A00790F7F0C1200208F0BE50B702BF0
:10052700FF740F2FF8E6AB08AA09A90A8F82758313
:10053700001204A0740F2FF8E6620C0FBF04E274D8
:100547000F2FF8E6650C6003750BFE7D807F0E129A
:0405570008D0AF0B0E
:01055B00227D
:06055C008B088A09890AE0
:10056200750D93750E70E4F513FFAB08AA09A90A7D
:100572008F82758300120461FE740F2FF8A6068F16
:100582008275830012046162130FBF04DD752400BB
:100592007525007526147B007A00790D7D071203FC
:1005A200EB1208AC752909752A00752B00752C0D04
:1005B200752D00752E00752F0B7B007A00790D7F4B
:1005C2000C120020EF700BE50C6418450B7003FF52
:0405D20080027FFE26
:0105D6002202
:0605D7008B0A8A0B890C5F
:1005DD008F138D14E4FFAB0AAA0BA90C8F827583C0
:1005ED0000120461FE74152FF8A6060FBF06E7E48E
:1005FD00FFAB0DAA0EA90F8F82758300120461FE49
:10060D00741B2FF8A6060FBF06E775290C752A0077
:10061D00752B00752C13752D00752E00752F117B04
:10062D00007A0079137F0E1200208F10E5107009EB
:0E063D007F0812078AEF20E3037510FEAF104E
:01064B00228C
:0606C0008B088A09890A7B
:1006C600750D308F0E75240075250075260F7A007E
:1006D600790D1203E7752904752A00752B00752C10
:1006E6000D752D00752E00752F0B7B007A00790D88
:1006F6007F0C120020EF7022E50C6490450B701AF7
:10070600FE740D2EF8E6AB08AA09A90A8E82758337
:0C071600001204A00EBE10E980027FFE5D
:0107220022B4
:060293008B088A09890AAC
:10029900750DA08F0E75240075250075260F7B003E
:1002A9007A00790D7D021203EB752904752A007510
:1002B9002B00752C0D752D00752E00752F0B7B00ED
:1002C9007A00790D7F0C120020EF7010E50C6404A0
:1002D900450B7008E50D540F640A60027FFEEF704C
:1002E90063FEAB08AA09A90A8E827583001204610C
:1002F900FD740D2EF8A6050EBE10E77524007525B0
:100309000075261D7B007A00790D7D101203EB75AF
:100319002912752A00752B00752C0D752D00752E67
:1003290000752F0B7B007A00790D7F0C120020EFEE
:100339007010E50C6404450B7008E50D540F640A50
:0403490060027FFED1
:01034D00228D
:080192008D088B098A0A890B14
:10019A008F0E85080F7524007525007526107B00C3
:1001AA007A00790E7D021203EB752904752A00750F
:1001BA002B00752C0E752D00752E00752F0C7B00EB
:1001CA007A00790E7F0C120020EF7010E50D64049E
:1001DA00450C7008E50E540F640A60027FFEEF704A
:1001EA0057FEAB09AA0AA90B8E8275830012046115
:1001FA00FD740E2EF8A6050EBE10E77524007525AF
:10020A00007526127B007A00790E7D041203EBE456
:10021A00F50CF50D752906F52A752B00752C0EF5CA
:10022A002D752E00752F0CFB7A00790E7F0C1200AB
:10023A0020EF64FE6002E4FFEF704D750EB0850892
:10024A000FF524752500752610FB7A00790E7D02BC
:10025A001203EB752904752A00752B00752C0E758F
:10026A002D00752E00752F0C7B007A00790E7F0CFD
:10027A00120020EF7010E50D6404450C7008E50EBD
:08028A00540F640A60027FFEBC
:010292002249
:02064C008D0817
:10064E00750BC28F0C1203DA120003EF7010E50A5D
:10065E00640445097008E50B540F640A60027FFEBE
:10066E00EF7027F50BF50CF50DF50EF5247525003D
:10067E0075260FFB7A00790B7D041203EB752906A4
:10068E00120006EF64FE6002E4FFEF60037FFE22BD
:10069E00750BB085080C1203DA120003EF7010E52B
:1006AE000A640445097008E50B540F640A60027F62
:0106BE00FE3D
:0106BF002218
:10080600750B50E4F50CF52475250075260DFB7A5D
:1008160000790B7D021203EB752904752A00752BEE
:1008260000752C0B752D00752E00752F097B007A2F
:0C08360000790B7F0C1200208F087F005F
:010842002293
:1003DA0075240075250075260D7A00790B7B007D42
:0103EA000210
:0803EB008B208A2189228D2359
:1003F3007D047F051208B01207C77D807F0A1208AB
:10040300D0E4F527E527C395235019AB20AA21A9EA
:1004130022852782758300120461FD7F091207CBB1
:10042300052780E07D037F011207CB7527FF7F053A
:1004330012078A1527E5276004EF30E2F17F2212C5
:10044300078AAB24AA25A926EF12048E7F2112075F
:0E0453008AAB24AA25A926900001EF0204A07E
:10084300D29200C29200D292007D0F7F011207CB99
:10085300007D3D7F111207CB7D1E7F2D1207CBE458
:10086300FD7F2C1207CB7D8D7F2A1207CB7D3E7F28
:070873002B1207CB7F0022CE
:06078400AC07AB05E4FE2A
:10078A00E4FEC297C280EF25E0547E4480FF7D08D4
:10079A00EF30E703D38001C39296D297EF25E0FFAB
:1007AA00C297DDEC7D08D297EE25E0FEA293E433F2
:0C07BA004206C297DDF0D280D297AF0655
:0107C6002210
:0407C700E4FD7F01CD
:1007CB00C297C280EF25E0547EFF7E08EF30E7032F
:1007DB00D38001C39296D297EF25E0FFC297DEEC50
:1007EB007E08ED30E703D38001C39296D297ED25B7
:0A07FB00E0FDC297DEECD280D29739
:0108050022D0
:0D08D000120784AE07AF04EB4EFD0207CB0C
:0408AC007D087F083C
:0E08B000120784AE07AF04EBF45EFD0207CB27
:10000300752904752A00752B00752C0B752D007549
:0D0013002E00752F097A00790B7B007F0C01
:080020008F258B268A27892811
:100028007530FEE4F531F532E52524F4600C24FE44
:10003800700E753112753210800675317775323051
:10004800E5314480FD7F021207CB7D807F041208D2
:10005800B01207C77D807F0A1208D0E4F534F53561
:10006800C3E5359529E5349400501FAB26AA27A986
:1000780028853582853483120461FD7F091207CBF8
:100088000535E53570DA053480D6AD257F011207D0
:10009800CBE525B40C077D807F0D1208D07534029E
:1000A8007535587F0412078A8F33E5351535700288
:1000B8001534E53545346009E53320E004553260F0
:1000C800E27D807F0D1208B0E535453470030201EA
:1000D800857F0612078AEF541B6003020182F53000
:1000E800E533553130E0037530FFE525640C6003D6
:1000F8000201857F0A12078A8F337F0C12078AEF65
:100108005407FD6021E53324FFFFE434FFFEEF7858
:1001180003C333CE33CED8F97C002DFFEC3EAB2D94
:10012800AA2EA92F800FE53375F008A4FFAB2DAADE
:100138002EA92FE5F08FF01204C2E5337003753352
:1001480001E533D394124003753312E4F534F535E1
:10015800C3E5359533E534940050227F0912078AA8
:10016800AB2AAA2BA92C853582853483EF1204A0EB
:100178000535E53570DA053480D67530FE7D807F2B
:090188000C1208D01207C7AF30B9
:01019100224B
:1008BE007F1412078AEF540370077D037F1412080A
:0108CE00D059
:0108CF002206
:0708E9007D037F140208B03B
:030000000208DD16
:0C08DD00787FE4F6D8FD75814902034ED7
:10046100BB010CE58229F582E5833AF583E0225050
:1004710006E92582F8E622BBFE06E92582F8E2229A
:0D048100E58229F582E5833AF583E49322B4
:10048E00BB010689828A83F0225002F722BBFE014D
:02049E00F32247
:1004A000F8BB010DE58229F582E5833AF583E8F092
:1004B000225006E92582C8F622BBFE05E92582C83E
:0204C000F22226
:1004C200BB010A89828A83F0E5F0A3F0225006F785
:0F04D20009A7F01922BBFE06F3E5F009F3192282
:00000001FF
